{
  "contractName": "CDP",
  "abi": [
    {
      "inputs": [],
      "payable": false,
      "stateMutability": "nonpayable",
      "type": "constructor"
    },
    {
      "constant": true,
      "inputs": [],
      "name": "owner",
      "outputs": [
        {
          "internalType": "address",
          "name": "",
          "type": "address"
        }
      ],
      "payable": false,
      "stateMutability": "view",
      "type": "function"
    },
    {
      "constant": false,
      "inputs": [],
      "name": "deposit",
      "outputs": [],
      "payable": false,
      "stateMutability": "nonpayable",
      "type": "function"
    }
  ],
  "bytecode": "0x608060405234801561001057600080fd5b50336000806101000a81548173ffffffffffffffffffffffffffffffffffffffff021916908373ffffffffffffffffffffffffffffffffffffffff16021790555060f08061005f6000396000f3fe6080604052348015600f57600080fd5b506004361060325760003560e01c80638da5cb5b146037578063d0e30db014607f575b600080fd5b603d6087565b604051808273ffffffffffffffffffffffffffffffffffffffff1673ffffffffffffffffffffffffffffffffffffffff16815260200191505060405180910390f35b608560ac565b005b6000809054906101000a900473ffffffffffffffffffffffffffffffffffffffff1681565b6000809054906101000a90505056fea265627a7a723158205e8cd18aab21a04f6d950d019e83e6cb41c53a5b6ec138e784c4b15118b37db164736f6c63430005100032",
  "source": "pragma solidity ^0.5.1;\n\ncontract CDP {\n  address public owner;\n  // TODO This may not be a address\n  address cupAddress;\n\n  constructor() public {\n    owner = msg.sender;\n    // create cdp\n  }\n\n  modifier restricted() {\n    if (msg.sender == owner) _;\n  }\n\n  function deposit() public restricted {\n\n    // wrap eth (gem)\n    // add to cup\n    // get dai\n    // convert to eth\n    // wrap\n    // add to cup\n    // repeat until exposure is 2x\n  }\n\n/**\n\n  function widthdraw() public restricted {\n    // TODO reverse of deposit\n  }\n\n  function rebalance() public restricted {\n    // TODO Change margin leverage\n  }\n\n*/\n}\n",
  "sourcePath": "/home/jacque006/workspaces/mETH/contracts/CDP.sol",
  "compiler": {
    "name": "solc",
    "version": "0.5.16+commit.9c3226ce.Emscripten.clang"
  },
  "schemaVersion": "3.0.23",
  "updatedAt": "2020-02-15T18:11:04.077Z",
  "networkType": "ethereum",
  "devdoc": {
    "methods": {}
  },
  "userdoc": {
    "methods": {}
  }
}