{
  "contractName": "ConstantAddresses",
  "abi": [
    {
      "constant": true,
      "inputs": [],
      "name": "MAKER_DAI_ADDRESS",
      "outputs": [
        {
          "internalType": "address",
          "name": "",
          "type": "address"
        }
      ],
      "payable": false,
      "stateMutability": "view",
      "type": "function"
    },
    {
      "constant": true,
      "inputs": [],
      "name": "MKR_ADDRESS",
      "outputs": [
        {
          "internalType": "address",
          "name": "",
          "type": "address"
        }
      ],
      "payable": false,
      "stateMutability": "view",
      "type": "function"
    },
    {
      "constant": true,
      "inputs": [],
      "name": "TUB_ADDRESS",
      "outputs": [
        {
          "internalType": "address",
          "name": "",
          "type": "address"
        }
      ],
      "payable": false,
      "stateMutability": "view",
      "type": "function"
    },
    {
      "constant": true,
      "inputs": [],
      "name": "WALLET_ID",
      "outputs": [
        {
          "internalType": "address payable",
          "name": "",
          "type": "address"
        }
      ],
      "payable": false,
      "stateMutability": "view",
      "type": "function"
    },
    {
      "constant": true,
      "inputs": [],
      "name": "WETH_ADDRESS",
      "outputs": [
        {
          "internalType": "address",
          "name": "",
          "type": "address"
        }
      ],
      "payable": false,
      "stateMutability": "view",
      "type": "function"
    }
  ],
  "bytecode": "0x608060405234801561001057600080fd5b5061027b806100206000396000f3fe608060405234801561001057600080fd5b50600436106100575760003560e01c8063040141e51461005c578063825ffd92146100a65780639da779e9146100f0578063d3661fa51461013a578063f0d405e514610184575b600080fd5b6100646101ce565b604051808273ffffffffffffffffffffffffffffffffffffffff1673ffffffffffffffffffffffffffffffffffffffff16815260200191505060405180910390f35b6100ae6101e6565b604051808273ffffffffffffffffffffffffffffffffffffffff1673ffffffffffffffffffffffffffffffffffffffff16815260200191505060405180910390f35b6100f86101fe565b604051808273ffffffffffffffffffffffffffffffffffffffff1673ffffffffffffffffffffffffffffffffffffffff16815260200191505060405180910390f35b610142610216565b604051808273ffffffffffffffffffffffffffffffffffffffff1673ffffffffffffffffffffffffffffffffffffffff16815260200191505060405180910390f35b61018c61022e565b604051808273ffffffffffffffffffffffffffffffffffffffff1673ffffffffffffffffffffffffffffffffffffffff16815260200191505060405180910390f35b73d0a1e359811322d97991e03f863a0c30c2cf029c81565b73aaf64bfcc32d0f15873a02163e7e500671a4ffcd81565b73c4375b7de8af5a38a93548eb8453a498222c4ff281565b7354b44c6b18fc0b4a1010b21d524c338d1f8065f681565b73a71937147b55deb8a530c7229c442fd3f31b7db28156fea265627a7a72315820fd6c074ec46ad5c81c55e7e2bfbdc58ba17c083c4004257756c452c96df07e0364736f6c63430005100032",
  "source": "pragma solidity ^0.5.1;\n\n/**\nfrom out/addresses.json\n\n  \"ETH_FROM\": \"0x16fb96a5fa0427af0c8f7cf1eb4870231c8154b6\",\n  \"GEM\": \"0x7ba25f791fa76c3ef40ac98ed42634a8bc24c238\",\n  \"GOV\": \"0x1c3ac7216250edc5b9daa5598da0579688b9dbd5\",\n  \"PIP\": \"0xb7092ee7a8c4c85431962662310bbdcd4fd519e9\",\n  \"PEP\": \"0xc0ee05307ae4a5316f34874a3525d10c94b3c217\",\n  \"PIT\": \"0x0000000000000000000000000000000000000123\",\n  \"ADM\": \"0x4986c24c7f752c2ac2d738f1270639dd9e9d7bf5\",\n  \"SAI\": \"0xc226f3cd13d508bc319f4f4290172748199d6612\",\n  \"SIN\": \"0xe9e2b40d676fc998ede8c676d9f529ccbbc13740\",\n  \"SKR\": \"0xa6164a2e88e258a663772ed4912a0865af8f6d06\",\n  \"DAD\": \"0x7b61731911e46da837e3dcd2d8797de684c8ced1\",\n  \"MOM\": \"0x603d52d6ae2b98a49f8f32817ad4effe7e8a2502\",\n  \"VOX\": \"0xe16bf7aafeb33cc921d6d311e0ff33c4faa836dd\",\n  \"TUB\": \"0xe82ce3d6bf40f2f9414c8d01a35e3d9eb16a1761\",\n  \"TAP\": \"0x6896659267c3c9fd055d764327199a98e571e00d\",\n  \"TOP\": \"0x2774031b3898fbe414f929b3223ce1039325e7dc\",\n  \"MAKER_OTC\": \"0x06ef37a95603cb52e2dff4c2b177c84cdb3ce989\",\n  \"PROXY_REGISTRY\": \"0x23f67a19dc232835eaeda2075728f8295f54dfca\",\n  \"DS_PROXY\": \"0x570074ccb147ea3de2e23fb038d4d78324278886\",\n  \"SAI_PROXY\": \"0x2348a875b1631307577be0935f289e0fb9316169\",\n  \"OASIS_PROXY\": \"0xc72b03c37735cf122c27dc352e5f25f75beea389\",\n  \"REDEEMER\": \"0x2daf1c09275b0b72277909377eb20ccf10efa02e\",\n*/\n\ncontract ConstantAddresses {\n    address public constant WETH_ADDRESS = 0xd0A1E359811322d97991E03f863a0C30C2cF029C;\n    address public constant MAKER_DAI_ADDRESS = 0xC4375B7De8af5a38a93548eb8453a498222C4fF2;\n    address public constant MKR_ADDRESS = 0xAaF64BFCC32d0F15873a02163e7E500671a4ffcD;\n    address public constant TUB_ADDRESS = 0xa71937147b55Deb8a530C7229C442Fd3F31b7db2;\n    address payable public constant WALLET_ID = 0x54b44C6B18fc0b4A1010B21d524c338D1f8065F6;\n}\n\n",
  "sourcePath": "/home/jacque006/workspaces/mETH/contracts/ConstantAddresses.sol",
  "compiler": {
    "name": "solc",
    "version": "0.5.16+commit.9c3226ce.Emscripten.clang"
  },
  "schemaVersion": "3.0.23",
  "updatedAt": "2020-02-15T18:11:02.047Z",
  "devdoc": {
    "methods": {}
  },
  "userdoc": {
    "methods": {},
    "notice": "from out/addresses.json \"ETH_FROM\": \"0x16fb96a5fa0427af0c8f7cf1eb4870231c8154b6\", \"GEM\": \"0x7ba25f791fa76c3ef40ac98ed42634a8bc24c238\", \"GOV\": \"0x1c3ac7216250edc5b9daa5598da0579688b9dbd5\", \"PIP\": \"0xb7092ee7a8c4c85431962662310bbdcd4fd519e9\", \"PEP\": \"0xc0ee05307ae4a5316f34874a3525d10c94b3c217\", \"PIT\": \"0x0000000000000000000000000000000000000123\", \"ADM\": \"0x4986c24c7f752c2ac2d738f1270639dd9e9d7bf5\", \"SAI\": \"0xc226f3cd13d508bc319f4f4290172748199d6612\", \"SIN\": \"0xe9e2b40d676fc998ede8c676d9f529ccbbc13740\", \"SKR\": \"0xa6164a2e88e258a663772ed4912a0865af8f6d06\", \"DAD\": \"0x7b61731911e46da837e3dcd2d8797de684c8ced1\", \"MOM\": \"0x603d52d6ae2b98a49f8f32817ad4effe7e8a2502\", \"VOX\": \"0xe16bf7aafeb33cc921d6d311e0ff33c4faa836dd\", \"TUB\": \"0xe82ce3d6bf40f2f9414c8d01a35e3d9eb16a1761\", \"TAP\": \"0x6896659267c3c9fd055d764327199a98e571e00d\", \"TOP\": \"0x2774031b3898fbe414f929b3223ce1039325e7dc\", \"MAKER_OTC\": \"0x06ef37a95603cb52e2dff4c2b177c84cdb3ce989\", \"PROXY_REGISTRY\": \"0x23f67a19dc232835eaeda2075728f8295f54dfca\", \"DS_PROXY\": \"0x570074ccb147ea3de2e23fb038d4d78324278886\", \"SAI_PROXY\": \"0x2348a875b1631307577be0935f289e0fb9316169\", \"OASIS_PROXY\": \"0xc72b03c37735cf122c27dc352e5f25f75beea389\", \"REDEEMER\": \"0x2daf1c09275b0b72277909377eb20ccf10efa02e\","
  }
}